:100000000C9438020C9460020C9460020C94600210
:100010000C9460020C9460020C9460020C946002D8
:100020000C9460020C9460020C9460020C946002C8
:100030000C9460020C9460020C9460020C946002B8
:100040000C94501B0C9460020C94171F0C94491FC5
:100050000C9460020C9460020C9460020C94600298
:100060000C942F1A0C9460020C9460020C946002A1
:100070000C9460020C9460020C9460020C94600278
:100080000C9460020C9460020C9460020C94600268
:100090000C9460020C9460020C9460020C94600258
:1000A0000C9460020C9460020C9460020C94600248
:1000B0000C94600252463234206E6F742072656177
:1000C00064790042757379007061757365007275AB
:1000D0006E6E696E6700726561647900DF00416E63
:1000E000676C65006D6D00506F7300207E0101002C
:1000F000000000000000000000005F5F0000000042
:1001000007070007070000147F7F1C7F7F14000093
:10011000242A7F7F2A1200466630180C666200305F
:100120007A4F5D377A4800000000070700000000A2
:10013000001C3E63410000000041633E1C000008BB
:100140002A3E1C1C3E2A080008083E3E0808000003
:100150000080E060000000000808080808080000AF
:10016000000060600000006030180C060301003ED3
:100170007F5149457F3E000040427F7F4040000064
:10018000727B49496F660000226149497F36001839
:1001900014527F7F50100000276F494979330000C7
:1001A0003E7F49497B3200000301717D0F0700004B
:1001B000367F49497F360000266F49497F3E00005F
:1001C00000006C6C000000000080EC6C000000007F
:1001D000081C366341000000242424242424000049
:1001E0004163361C08000000020351590F06003E0F
:1001F0007F415D5D5F1E00007C7E13137E7C0041AD
:100200007F7F49497F36001C3E63414163220041A4
:100210007F7F41633E1C00417F7F495D4163004118
:100220007F7F491D0103003C7E43415173720000F2
:100230007F7F08087F7F000041417F7F4141003080
:100240007040417F3F0100417F7F081C7763004180
:100250007F7F41406070007F7F0E1C0E7F7F007F9C
:100260007F060C187F7F001C3E6341633E1C0041EB
:100270007F7F49090706003C7E4351336E5C004195
:100280007F7F09193F660000266F49497B320000D5
:1002900003417F7F410300003F7F40407F3F0000DC
:1002A0001F3F60603F1F007F7F3018307F7F0061FD
:1002B000731E0C1E73610000074F78784F070047CC
:1002C0006371594D67730000007F7F414100000159
:1002D00003060C18306000000041417F7F000008D9
:1002E0000C0603060C0800808080808080808000DF
:1002F0000002060C080000207454543C784000436F
:100300003F7F44447C380000387C44446C280038EB
:100310007C44453F7F400000387C54545C1800000A
:10032000487E7F490302000098BCA4A4FC7C0041E5
:100330007F7F08047C78000000447D7D4000000041
:1003400060E08084FC7D00417F7F10386C440000B9
:1003500000417F7F400000787C0C380C7C780004E2
:100360007C78040478780000387C44447C3800842D
:10037000FCF8A4243C1800183C24A4F8FC84004495
:100380007C78440C08000000485C54547420000041
:10039000043F7F44642000003C7C40407C7C0000A3
:1003A0001C3C60603C1C003C7C6038607C3C004431
:1003B0006C3810386C4400009CBCA0A0FC7C000091
:1003C0004C64745C4C4400004141773E08080000D6
:1003D00000007F7F0000000008083E7741410002D6
:1003E000030103020101000A0B0C0D0E0F000102B4
:1003F0000304050A0D0E09000302000004050800AD
:1004000000000000000000000000000000000102E9
:100410000408102040800102040810200102040892
:100420001020408040010204080404040404040471
:100430000402020202020203030303030302020393
:1004400005050505000000002300260029002C00FA
:1004500000000000250028002B002E0000000000F6
:10046000240027002A002D00B60BAC18791F0119B3
:1004700011241FBECFEFD8E0DEBFCDBF12E0A0E059
:10048000B1E0ECE8FEE402C005900D92A03EB10799
:10049000D9F725E0A0EEB2E001C01D92A430B2076A
:1004A000E1F712E0C7E3D2E004C02197FE010E9409
:1004B0008D22C433D107C9F70E94FE1F0C9439273F
:1004C0000C94000090E080E008950895CF92DF92B0
:1004D000EF92FF920F931F93CF93DF936C01EB0189
:1004E0007B01E40EF51E10E000E0CE15DF0561F0A3
:1004F0006991D601ED91FC910190F081E02DC6014A
:100500000995080F191FF1CFC801DF91CF911F91F5
:100510000F91FF90EF90DF90CF900895E4EFF2E01D
:1005200024E1DF011D922A95E9F744E150E0BC0186
:10053000CF010E94172484EF92E00895E4EFF2E0E7
:1005400024E1DF011D922A95E9F79F938F937F9312
:100550006F9383E591E09F938F93FF93EF930E94B6
:1005600061248DB79EB708960FB6F8949EBF0FBE54
:100570008DBF84EF92E008950F931F93CF9387E48C
:1005800093E00E94F51087EE90E00E948E029C019D
:1005900040E060E087E493E00E94C40E60919C0319
:1005A00070919D0380919E0390919F030E94FC2077
:1005B0000E949E029C0140E068E087E493E00E9474
:1005C000C40E2DE731E040E06BE087E493E00E9449
:1005D000C40E20E030E048EC52E460919C0370913E
:1005E0009D0380919E0390919F030E94E2210E94AF
:1005F000FC20862FC4E66C2F0E945F22692F70E0DA
:1006000090E080E00E949E029C0140E06CE087E464
:1006100093E00E94C40E84EE90E00E948E029C0142
:1006200040E06EE087E493E00E94C40E8EED90E01F
:100630000E948E029C0141E060E087E493E00E940A
:10064000C40E6091A0037091A1038091A2039091C8
:10065000A3030E94FC200E949E029C0141E068E0EE
:1006600087E493E00E94C40E2DE731E040E06BE0A8
:1006700087E493E00E94C40E20E030E048EC52E4AE
:100680006091A0037091A1038091A2039091A303B4
:100690000E94E2210E94FC20862F6C2F0E945F2284
:1006A000692F70E090E080E00E949E029C0140E093
:1006B0006CE087E493E00E94C40E8CED90E00E9411
:1006C0008E029C0141E06EE087E493E00E94C40E3C
:1006D0008091A803813009F44EC0CCF5882309F439
:1006E00042C08091A903E4EFF2E094E1DF011D92A2
:1006F0009A95E9F78A3008F04DC01F9295E29F93D2
:100700001F928F9387E591E09F938F93FF93EF93D1
:100710000E94612424EF32E046E06EE087E493E03B
:100720000E94C40E06E011E021E046E06DE087E49F
:1007300093E00E9481108DB79EB708960FB6F8948B
:100740009EBF0FBE8DBFCF911F910F910895823034
:10075000F1F0833031F683EC90E00E948E029C0130
:1007600047E06CE00FC086ED90E00E948E029C0195
:1007700047E06BE007C08EEC90E00E948E029C0187
:1007800047E069E087E493E00E94C40EAACF88ECBA
:1007900090E0EBCF843638F51F9295E29F931F923D
:1007A0008F9387E591E09F938F93FF93EF930E9440
:1007B000612424EF32E046E06DE087E493E00E949C
:1007C000C40E06E011E021E046E06CE087E493E02F
:1007D0000E9481108DB79EB708960FB6F8949EBF01
:1007E0000FBE8DBFB0CF1F9295E29F931F928F9344
:1007F00087E591E09F938F93FF93EF930E9461248D
:1008000024EF32E046E06CE087E493E00E94C40EFF
:1008100006E011E021E046E06BE087E493E00E940F
:1008200081108DB79EB708960FB6F8949EBF0FBE85
:100830008DBF89CF84E293E00E94231781110BC002
:1008400084EB90E00E948E029C0144E060E087E42B
:1008500093E00E94C40E41E061E084E293E00E94D4
:10086000491668E184E293E00E94711469E271E044
:1008700084E293E00E9477154FE251E061E084E268
:1008800093E00E94A91584E293E00C940E1668EEA2
:1008900073E080E090E00E94CB1B66E970E08AE1A3
:1008A0000E94701C26E040E052EC61E070E083E6BC
:1008B00094E00E94BF1E43E150E06CE571E083E6E6
:1008C00094E00E94A61F61E08DE00E944C1D60E054
:1008D00089E10E944C1D87E493E00E94AC1087E4FC
:1008E00093E00E94F51060E087E493E00E94B51069
:1008F0006BEE70E087E493E00E942A0E20E731E07F
:1009000043E061E087E493E00E94C40E2FE731E00A
:1009100047E067E087E493E00E94C40E68EB7BE069
:1009200080E090E00E94CB1B0E94BC020E941A044F
:1009300060E080E10C944C1D84E293E00E94C114BD
:1009400048E16CE073E084E293E00E94531584E296
:1009500093E00E940E1662E070E080E090E00C945C
:10096000CB1BECE0F3E088E1DF011D928A95E9F70B
:1009700069E871E0CF010E943D240C949C04CF9261
:10098000DF92FF920F931F93CF93DF93CCE0D3E0DE
:1009900088E1F82EFE018F2D11928A95E9F705E383
:1009A00011E0F80186858F9385858F9384858F93D9
:1009B00083858F938FE891E09F938F93DF93CF93FD
:1009C0000E9461240E949C04FE018F2D11928A9541
:1009D000E9F7F80180898F9387858F9389E991E002
:1009E0009F938F93DF93CF930E9461240E949C0476
:1009F000FE018F2D11928A95E9F7F80183818F937B
:100A000082818F9381818F9380818F9382EA91E09D
:100A10009F938F9396EAC92E91E0D92EDF92CF92C1
:100A2000DF93CF930E9461240E949C04FE018F2DCE
:100A300011928A95E9F7F80187818F9386818F93C8
:100A400085818F9384818F938FEA91E09F938F9319
:100A5000DF92CF92DF93CF930E946124EDB7FEB770
:100A6000B2960FB6F894FEBF0FBEEDBF0E949C0475
:100A7000FE018F2D11928A95E9F7F80181858F93F8
:100A800080858F9383EB91E09F938F9327EBC22E0A
:100A900021E0D22EDF92CF92DF93CF930E94612488
:100AA0000E949C04FE011192FA94E9F7F8018285F4
:100AB0001F928F938FEB91E09F938F93DF92CF9252
:100AC000DF93CF930E946124EDB7FEB770960FB607
:100AD000F894FEBF0FBEEDBFDF91CF911F910F9134
:100AE000FF90DF90CF900C949C040F931F93CF93B3
:100AF000DF93D82F87E493E00E94F5100FE111E017
:100B0000C0E0F801219131918F014C2F61E087E421
:100B100093E00E94C40ECF5FC53099F72EE34D2FAE
:100B200060E087E493E0DF91CF911F910F910C94E7
:100B30002E0E0F931F93CF93DF93D82F87E493E06C
:100B40000E94F5100FE011E0C0E0F8012191319111
:100B50008F014C2F61E087E493E00E94C40ECF5FC9
:100B6000C83099F723EC31E040E068E087E493E097
:100B70000E94C40E6091390170913A0180913B014D
:100B800090913C010E949E029C0141E068E087E454
:100B900093E00E94C40E60913D0170913E0190E08F
:100BA00080E00E949E029C0142E068E087E493E0BE
:100BB0000E94C40E60913F0170E090E080E00E94CE
:100BC0009E029C0143E068E087E493E00E94C40E2B
:100BD00060914001709141018091420190914301E7
:100BE0000E949E029C0144E068E087E493E00E943A
:100BF000C40E609144017091450190E080E00E9434
:100C00009E029C0145E068E087E493E00E94C40EE8
:100C10002EE34D2F60E087E493E0DF91CF911F91A9
:100C20000F910C942E0E4F925F926F927F928F9243
:100C30009F92AF92BF92CF92DF92EF92FF920F936B
:100C40001F93CF93DF93CDB7DEB72C970FB6F894F1
:100C5000DEBF0FBECDBF6D837E838F8398872987CC
:100C60003A874B875C878DE793E00E94AC126B015B
:100C70007C018DE793E00E94B91169837A838B83AD
:100C80009C83A980BA80C701B6010E942B212B0149
:100C90003C0120914A0130914B0140914C0150910F
:100CA0004D010E947E2087FF5FC08090460190909A
:100CB0004701A0904801B0904901A5019401C301EA
:100CC000B2010E947E2087FF06C0C501B4010E94C8
:100CD000FC206B017C0169857A858B859C850E944F
:100CE0002B2160934E0170934F018093500190939C
:100CF0005101C701B6010E942B212091AE03309112
:100D0000AF034091B0035091B1030E94E2212091C2
:100D1000AA033091AB034091AC035091AD030E9404
:100D200012200E94F5209B01AC01E980FA80C701E6
:100D3000FF0CAA0BBB0BBC01CD01ED80FE800F8127
:100D400018856E197F09800B910B0E944F22A98094
:100D5000BA80A60EB71EA5010B2C000C660B770BF4
:100D60008DE793E00E94FB11B501BB0C880B990B3A
:100D70002C960FB6F894DEBF0FBECDBFDF91CF919A
:100D80001F910F91FF90EF90DF90CF90BF90AF90A9
:100D90009F908F907F906F905F904F9008954F92AB
:100DA0005F926F927F928F929F92AF92BF92CF92FB
:100DB000DF92EF92FF928DE793E00E94B9116B01F1
:100DC0005B019091B603913069F51092B6032091C2
:100DD0000A0330910B032115310559F481E090E0AD
:100DE00090930B0380930A03809109030E94750579
:100DF00019C02130310509F091C080910903833079
:100E000009F47EC0843009F484C081110BC082E0F3
:100E100090E090930B0380930A031092080380E004
:100E20000E9499058091ED029091EE028A159B0532
:100E300009F459C08DE793E00E94BF1181309105FC
:100E400009F0A3C10E949A1B0E949A1B6093F002B2
:100E50007093F1028093F2029093F30280910A035F
:100E600090910B03019759F480910903843019F094
:100E70008F5F80930903809109030E94750580911B
:100E80000A0390910B03029779F48091EF0281118C
:100E90000BC080910803873019F08F5F809308039F
:100EA000809108030E94990580910A0390910B0399
:100EB0000297A9F48091EF02882389F080910803BA
:100EC000823009F4E5C00CF052C0882309F465C0F3
:100ED000813009F493C0809108030E949905D09253
:100EE000EE02C092ED02FF90EF90DF90CF90BF90A6
:100EF000AF909F908F907F906F905F904F900895EC
:100F000010920B0310920A03109209030E94BC0274
:100F100089CF60E08AE10E94881D84CF22E030E022
:100F200030930B0320930A03809108038630B1F0BD
:100F300044F487FD77CF8091EF0289278093EF02F9
:100F400071CF873009F06ECF81E090E090930B0372
:100F500080930A031092090380E048CF0E94BF04E7
:100F60000E94B10410920B0310920A03CFCF843079
:100F700009F4C8C00CF4BDC0853009F0ACCF809135
:100F8000440190914501833B910508F0A4CF01965F
:100F900090934501809344019ECF609135017091FB
:100FA00036018091370190913801603223E0720759
:100FB0008105910508F08FCF0E942B2126E636E6A9
:100FC00046E85FE30E94E2210E94FC20DC01CB01A5
:100FD0000196A11DB11D813233E09307A105B10532
:100FE00020F080E293E0A0E0B0E0809335019093A0
:100FF0003601A0933701B09338016DCF6091ED02B7
:101000007091EE02072E000C880B990B26E930E058
:1010100040E050E00E9413068DE793E00E94B91172
:101020008090ED029090EE02092C000CAA08BB08FB
:101030009B01AC01281939094A095B0949015A0188
:101040008091390190913A01A0913B01B0913C010E
:10105000880E991EAA1EBB1E31E2831633E093064A
:10106000A104B10430F080E2882E83E0982EA12CF8
:10107000B12C8092390190923A01A0923B01B0923A
:101080003C016BEC71E083E694E00E94E61F23CF05
:101090006091ED027091EE02072E000C880B990B07
:1010A0002FE030E040E050E00E9413068DE793E02F
:1010B0000E94B9118090ED029090EE02092C000C74
:1010C000AA08BB08DC01CB0188199909AA09BB0948
:1010D00020913D0130913E01820F931F813941E003
:1010E000940710F080E991E090933E0180933D01D8
:1010F000F2CE80913F018F3F09F4EDCE8F5F809358
:101100003F01E9CE6091400170914101809142011F
:1011100090914301683771058105910568F46F5F0F
:101120007F4F8F4F9F4F6093400170934101809399
:10113000420190934301CFCE603856E9750758E9D4
:101140008507910508F0C7CE0E942B212DEC3CECC1
:101150004CE85FE30E94E2210E94FC20462F572FBB
:10116000BC01413886E9580788E96807710520F015
:1011700040E856E968E970E040934001509341012E
:101180006093420170934301A6CE019609F0A7CE69
:1011900080910A0390910B03019759F48091090300
:1011A000882319F0815080930903809109030E94DC
:1011B000750580910A0390910B03029779F4809151
:1011C000EF0281110BC080910803882319F0815030
:1011D00080930803809108030E94990580910A0377
:1011E00090910B03029709F07ACE8091EF02882349
:1011F00009F475CE80910803823009F49BC00CF08D
:1012000059C0882309F468C0813009F064CE609128
:10121000ED027091EE02072E000C880B990B26E967
:1012200030E040E050E00E941306409039015090B9
:101230003A0160903B0170903C018090ED029090EB
:10124000EE02092C000CAA08BB088DE793E00E946F
:10125000B911861A970AA80AB90A84149504A60433
:10126000B70408F05EC08090ED029090EE02092C69
:10127000000CAA08BB088DE793E00E94B911861AFA
:10128000970AA80AB90A8091390190913A01A09170
:101290003B01B0913C0188199909AA09BB098093C7
:1012A000390190933A01A0933B01B0933C0161ED69
:1012B00071E0E9CE843009F487C00CF47EC085303B
:1012C00009F009CE80914401909145018230910549
:1012D00008F401CE01975CCE609135017091360122
:1012E0008091370190913801623071058105910537
:1012F00008F4F1CD0E942B2126E636E646E85FE3AE
:101300000E9483200E94FC2061507109810991098B
:1013100060933501709336018093370190933801C3
:10132000DACD1092390110923A0110923B011092DD
:101330003C01BDCF6091ED027091EE02072E000CD2
:10134000880B990B2FE030E040E050E00E9413063C
:1013500040903D0150903E01712C612C8090ED0237
:101360009090EE02092C000CAA08BB088DE793E0D0
:101370000E94B911861A970AA80AB90A81E090E07A
:1013800084149504A604B7040CF0AECE8090ED0250
:101390009090EE02092C000CAA08BB088DE793E0A0
:1013A0000E94B911861A970AA80AB90A80913D01CC
:1013B00090913E018819990997CE80913F01813023
:1013C00009F489CD81509BCE60914001709141011B
:1013D00080914201909143016E377105810591051D
:1013E000C0F00E942B212DEC3CEC4CE85FE30E9406
:1013F00083200E94FC20462F572FBC014436510504
:101400006105710508F0B8CE44E650E060E070E098
:10141000B3CE653671058105910508F45CCD615048
:101420007109810991097FCECF93DF93EC0184E2AA
:1014300093E00E94C114ECE0F3E088E1DF011D922B
:101440008A95E9F786E2808383E0FE01ADE0B3E0B0
:1014500001900D928A95E1F70E949C0484E293E04A
:10146000DF91CF910C940E16CF93DF9300D000D074
:10147000CDB7DEB71C821B8283E0EDE0F3E0DE0136
:10148000119601900D928A95E1F780910C038A32B2
:1014900009F046C069ED71E0CE0101960E94342446
:1014A000892BA1F481E193E00E94F0230E942D2179
:1014B00020E030E040EA52E40E94832060939C03E5
:1014C00070939D0380939E0390939F036DED71E055
:1014D000CE0101960E943424892BA1F481E193E08E
:1014E0000E94F0230E942D2124EE38E34EE052E4C6
:1014F0000E9483206093A0037093A1038093A203B2
:101500009093A30361EE71E0CE0101960E94342412
:10151000892B31F481E193E00E94D2238093A803C8
:101520000F900F900F900F90DF91CF910895CF9271
:10153000DF92EF92FF921F93CF93DF931F92CDB76D
:10154000DEB78DE793E00E943D1280E10E94B61D58
:1015500010910E01113009F082C0811121C00E944A
:101560009A1BC090B203D090B303E090B403F09004
:10157000B5036C197D098E099F09633371058105D7
:10158000910570F00E949A1B6093B2037093B303AD
:101590008093B4039093B5031093B60310920E0199
:1015A0000E94CF06BE016F5F7F4F84E293E00E94EE
:1015B00056158823A1F0ECE0F3E088E1DF011D92ED
:1015C0008A95E9F784E293E00E948D14482F6CE03D
:1015D00073E084E293E00E946A150E94340A0E943C
:1015E0009A1B6093E5027093E6028093E702909362
:1015F000E80220910A0330910B03232B09F03BC032
:10160000C090E902D090EA02E090EB02F090EC0288
:101610009B01AC012C193D094E095F0969017A0152
:1016200035E6C316D104E104F10428F16093E90220
:101630007093EA028093EB029093EC02E091E00257
:10164000E830C8F4F0E0E95DF44F0C948D22320BE1
:10165000440B470B4A0B4D0B500B530BB10B8093B4
:101660000E019ECF89ED91E00E94140A8091E00264
:101670008F5F8093E0020F90DF91CF911F91FF90D9
:10168000EF90DF90CF9008958DED91E0EDCF81EE5A
:1016900091E0EACF85EE91E0E7CF89EE91E0E4CFEB
:1016A0008DEE91E0E1CF89E10E944B1CBC01990FC6
:1016B000880B990B0E942D2120E030E040E85AE38E
:1016C0000E94E22123E333E343E550E40E94E22158
:1016D0009B01AC010E9412206B017C012DEC3CECC3
:1016E0004CE650E40E94DD21181694F526E636E615
:1016F00046E850E4C701B6010E947E2087FD07C07E
:1017000096E6C92EDC2C96E8E92E90E4F92EC092DC
:10171000E102D092E202E092E302F092E4022DECC8
:101720003CEC4CE650E4C701B6010E94112028EFC2
:101730003FEF4FEF5EE30E94832020E030E048EC73
:1017400052E40E94E2210E94FC206093A9038ECF04
:101750008DECC82E8CECD82E8CE6E82E80E4F82E8A
:10176000D6CF0E94BC021092E00285CF8F929F924A
:10177000AF92BF92CF92DF92EF92FF920F931F939F
:10178000C0904A01D0904B01E0904C01F0904D0187
:1017900020E030E040E85FE360914E0170914F013E
:1017A00080915001909151010E9411204B015C01E8
:1017B000A70196016091460170914701809148010F
:1017C000909149010E9411209B01AC01C501B40117
:1017D0000E9483209B01AC012093AE033093AF03A2
:1017E0004093B0035093B103C701B6010E94E221B8
:1017F0009B01AC0160E070E080E89FE30E94112053
:101800006093AA037093AB038093AC039093AD03F2
:1018100021E030E04FE050E06EE070E08DE793E0D3
:101820000E949411E3E4F3E01382128210AE11AE31
:1018300085EF91E09183808307EC1CE023E33DE09A
:1018400045E65FE06FE370E187E493E00E943911C1
:1018500026E045E067E087E493E00E94CE0D00E8D3
:1018600016E928E930E048E050E069E070E084E201
:1018700093E00E944A141F910F91FF90EF90DF9028
:10188000CF90BF90AF909F908F9008951F93CF936C
:10189000DF93EC01EC89FD8949AD6A3059F4339648
:1018A000E491E40FE9AF18AE81E090E0DF91CF91D1
:1018B0001F910895262F3296149168AD04960E94C8
:1018C0002E0EE8ADE10FE8AFEFCFCF92DF92EF92AF
:1018D000FF920F93FC01C12C92E1D92E9AE7E92ED9
:1018E000F12C90E04C155D056E057F0540F4F694F3
:1018F000E794D794C7949F5F9630A1F797E031E0C3
:10190000392780E5211101C080E7202F2C70032F9B
:101910000695022B082B00839095917091830F916F
:10192000FF90EF90DF90CF9008952091B90322238C
:1019300081F03FB7F8942091B903213069F42DB3B9
:101940002093B7034DB32091B803209524232DBBDA
:101950003FBF8CBD9DBD08953093B703FACF8EBDB8
:1019600000000DB407FEFDCF8EB508958091B90338
:10197000882361F09FB7F8942091B9038091B70351
:10198000213019F48DBB9FBF08958FBF08950F9329
:101990001F93CF93DF938C01C62F642FCC32A8F412
:1019A000CA32D0F5C83239F1C932E1F180E0C03431
:1019B000A0F1CF73F801EC0FF11DD68DDF3F61F17F
:1019C000C03108F042C08D2F13C0CD3289F170F3C1
:1019D00084EB8C0F823050F7CF73C00FD12FD11D05
:1019E0008E8D41112EC061E00E944C1D60E08E8DF5
:1019F0000E94881D11C0025E1F4FD0E0F801819146
:101A00008F018F3F31F061E0D03108F062E00E9439
:101A10004C1DDF5FD63191F781E0DF91CF911F91AF
:101A20000F91089570E090E080E00E94CB1BF4CF0E
:101A300085E090E0433010F082E090E00E94041CCA
:101A4000EBCF62E00E944C1DE7CFC03111F40E9441
:101A50004F1B8D2F0E94B61D21E0892B09F420E039
:101A6000F801218FD9CFCF92DF92EF92FF920F939F
:101A70001F93CF93DF9300D0CDB7DEB77C01142F37
:101A80006901683109F443C080F4643101F16731C0
:101A9000A9F080E00F900F90DF91CF911F910F91EF
:101AA000FF90EF90DF90CF900895693109F45FC007
:101AB000603279F76AE40E94121127C0112329F1DC
:101AC000D6018D916D010E94AF0C1150F7CFFC0132
:101AD0002081318184859585A685B785892B8A2BC0
:101AE0008B2B51F4F90180859185A285B385F7018F
:101AF00084879587A687B787D90111964C9169E4A9
:101B0000C7010E9412110E945E1181E0C3CFDC0167
:101B1000ED91FC91E485E15000E0E33020F4F0E049
:101B2000E05BFD4F0081F70144855585668577852B
:101B300021E0CE0101960E94650C89819A810E9464
:101B4000950CD701ED91FC91408169E4C7010E9499
:101B50001211F701A081B1810285138530E020E0E8
:101B600012964C916CE2C701F8010995CECFFC01A9
:101B7000A081B1810285138530E020E013964C915D
:101B80006CE2F8010995D701ED91FC91418169E47E
:101B9000C7010E9412110E94B60CB7CFFC0167A3C7
:101BA00040A721A70895CF93DF93EC01A889B989B5
:101BB000FD01349131969491319684911396FD01F3
:101BC000A4916317A8F1961798F1631B770B8A9F6E
:101BD000E02D1124E69FC001E79F900D1124280FEE
:101BE000392F311D83E0220F331F8A95E1F7C90198
:101BF0000496DA01245F3F4FE889F989E80FF91F5D
:101C0000E491ED93019682179307B1F78D898823AC
:101C100061F0FA019A01285F3F4F8191DF0111972E
:101C200080958C932E173F07C1F7DF91CF910895D0
:101C3000FA01CA0108961192E817F907E1F7E6CF11
:101C4000662329F06A3019F0862F90E008958FEF0F
:101C50009FEF0895FC01718B608B08955F926F92E6
:101C60007F928F929F92AF92BF92CF92DF92EF922C
:101C7000FF920F931F93CF93DF93CDB7DEB72897D3
:101C80000FB6F894DEBF0FBECDBF6C01A62EB42EEA
:101C9000922EFC0180899189FC013296E490319664
:101CA000F4905E2C560EF40E81E0860F581610F458
:101CB000EE24E394712C672C8A2C262DAE014F5F05
:101CC0005F4F692DC6010E94D30D8E010F5F1F4F1C
:101CD00021E04B2D682DC6010E94811063948394EE
:101CE000851458F3B3947E0CBF1428F328960FB6CE
:101CF000F894DEBF0FBECDBFDF91CF911F910F9142
:101D0000FF90EF90DF90CF90BF90AF909F908F901B
:101D10007F906F905F900895CF92DF92EF92FF9245
:101D20000F931F93CF93DF938C01D62EC42EDC012B
:101D30005096ED91FC913296C491FC01108E790180
:101D4000D0E0D7016D917D01D8011296ED91FC9103
:101D5000C80109958F3F980769F08E3FEFEF9E0706
:101D600081F3282F4C2D6D2DC8010E942E0EDC0E04
:101D7000DF5FE7CF8D2FDF91CF911F910F91FF9004
:101D8000EF90DF90CF900895E0E2FEE0DC01139643
:101D9000FC93EE9312970C948C0E462FDC01189650
:101DA000ED91FC9130E020E060E209949A01DC01C1
:101DB0001896ED91FC91462F67E10994CF93DF933C
:101DC0001F92CDB7DEB76983AE014F5F5F4F61E011
:101DD0000E94D60E0F90DF91CF910895462FDC011F
:101DE0001696ED91FC9130E020E065E10994462FD4
:101DF000DC011696ED91FC9130E020E066E109945B
:101E00009A01DC011696ED91FC91462F67E1099449
:101E1000DC011696ED91FC9130E020E040E068E1B5
:101E20000994DC011696ED91FC9130E020E040E051
:101E300069E10994EF92FF920F931F93CF93DF9381
:101E40001F92CDB7DEB77C018B01D8016C91673151
:101E500029F150F46531A0F40F90DF91CF911F91DB
:101E60000F91FF90EF9008956A3118F16E3FA1F73E
:101E7000F8014181498369E2C7010E9412110BC038
:101E8000F80141814983D7011696ED91FC9130E02C
:101E900020E0C70109950E5F1F4FD7CFF801818160
:101EA0008983AE014F5F5F4F61E0C7010E94000F61
:101EB000F2CF0F5F1F4FD7011696ED91FC9130E0E6
:101EC00020E040E0C7010995C0CFEF92FF920F9349
:101ED0001F93CF93DF938C01C62FD42F79016731E5
:101EE00030F46531B8F4643131F080E01BC0673103
:101EF00001F16A31D0F7D8011896ED91FC91970164
:101F00004D2F6C2FC801DF91CF911F910F91FF9042
:101F1000EF90099460E00E94CD0E6D2FC8010E94E1
:101F2000DE0E81E0DF91CF911F910F91FF90EF9036
:101F3000089561E00E94CD0EDECFCF92DF92FF9236
:101F40000F931F93CF93DF93EC01042F69016E3041
:101F500009F44EC06F30A9F080E06B3051F461EAB3
:101F600072E0442311F06AE972E0CE010E941A0F78
:101F700081E0DF91CF911F910F91FF90DF90CF9083
:101F800008950E94080FF6011381110F110F110F10
:101F90008C89180F612F62956F706061CE010E946D
:101FA000EE0E612F6F70CE010E94EE0EF60164817D
:101FB000606BCE010E94EE0EF601F280FF0CFF0C6A
:101FC000FF0CC080D1802F2D210F3327331F2538E0
:101FD00031051CF084E8F82EF11AA6016F2DCE0110
:101FE0000E94000F0150C9F7CE010E94110FC0CF0F
:101FF0000E94080F61E8CE010E94EE0E602F6695E8
:102000006695CE010E94F70EEFCF0F931F93CF93EB
:10201000DF93EC01162F042F0E949D0F81110BC03E
:102020001A3079F01D30B1F0193031F464E772E004
:10203000CE010E94411081E0DF91CF911F910F915D
:102040000895CE010E94491063E572E0CE010E941E
:102050001A0FF1CF01110AC063E972E0CE010E94AC
:102060001A0FE881F98182898C8BE5CF6CE872E0E8
:10207000CE010E941A0FE881F9818389F5CF0C9473
:102080000510FC0171836083FB012289FC01248B14
:102090000895CF93DF93EC01EA85FB8530E020E0E3
:1020A00040E068E20995EE81FF8130E020E040E009
:1020B00064E1CE01099541E06BE4CE010E9412116A
:1020C000E881F981448169E2CE010E94121140E069
:1020D0006BE4CE010E941211E881F981448169E22A
:1020E000CE010E94121141E06BE4CE010E94121158
:1020F000E881F981458169E2CE01DF91CF910C94AD
:1021000012110F931F93CF93DF9300D000D01F9233
:10211000CDB7DEB76C834D832B831A830983DC0133
:102120001496ED91FC919E012F5F3F4F41E06FE0CF
:1021300009950F900F900F900F900F90DF91CF9116
:102140001F910F910895DC011496ED91FC9130E000
:1021500020E040E069E00994DC011496ED91FC91E7
:1021600030E020E040E06AE00994462FDC0114965C
:10217000ED91FC9130E020E06BE00994CF92DF928A
:10218000FF920F931F93CF93DF9300D000D01F9245
:10219000CDB7DEB78C011C8281E08B837A836983A3
:1021A000D801ED91FC91F1881D82F801A081B181E7
:1021B000C480D5809E012F5F3F4F50964C916FE0B9
:1021C000C801F60109958D818F5F8D838F1568F3A6
:1021D0000F900F900F900F900F90DF91CF911F9164
:1021E0000F91FF90DF90CF900895CF93DF93CDB7FD
:1021F000DEB728970FB6F894DEBF0FBECDBFBE0185
:102200006F5F7F4F28E0FB0111922A95E9F70E944A
:10221000BE1028960FB6F894DEBF0FBECDBFDF917B
:10222000CF910895DC011A96ED91FC9130E020E009
:10223000099480E00895FC011182108289E191E106
:10224000958384839783868391878087938782870A
:10225000158A108E14861586168617868FEF868B44
:10226000828FDF015E96F4968D93AE17BF07E1F77C
:102270000895AF92BF92CF92DF92EF92FF920F93A9
:102280001F93CF93DF93EC015B016A0179010E94F8
:102290001B11BD82AC82DF82CE82F986E8861B8765
:1022A0000A87CE01DF91CF911F910F91FF90EF90A0
:1022B000DF90CF90BF90AF900C94A310CF93CFB787
:1022C000F8948091BA03811127C0E3E3F4E084918C
:1022D000E8E1F4E09491E82FF0E0EE0FFF1FE45AFC
:1022E000FB4FA591B491EC91E92321F461E08AE0E0
:1022F0000E94881D61E08AE00E944C1D8CB58061BF
:102300008CBD8CB580648CBD61E08DE00E944C1D5D
:1023100061E08BE00E944C1D8091BA038F5F809337
:10232000BA03CFBFCF9108951F93CF93DF93EC01F2
:10233000862F142F688379834A835B833D832C83A4
:1023400062E00E944C1D62E0812F0E944C1D83E0E0
:102350008E831F82188619861A861B861C861D8608
:102360001E861F86188A198A1A8ADF91CF911F91BB
:102370000895FC0163857485858596850895FC0123
:10238000478550896189728983859485A585B6853D
:1023900084179507A607B7075CF483859485A58500
:1023A000B6858787908BA18BB28B8FEF9FEF0895B7
:1023B000478550896189728983859485A585B6850D
:1023C000481759076A077B075CF483859485A585C0
:1023D000B6858787908BA18BB28B81E090E00895C2
:1023E00083859485A585B6858787908BA18BB28BD5
:1023F00090E080E008950F931F93FC018481958104
:10240000813091052CF0833091052CF0039731F148
:102410001F910F9108950781108521853285DB0179
:10242000CA01880F991FAA1FBB1F880F991FAA1FD7
:10243000BB1F0370112722273327802B912BA22B40
:10244000B32B87839087A187B2874387548765879B
:1024500076874787508B618B728BDACF0781108527
:1024600021853285DB01CA01880F991FAA1FBB1F76
:102470000170112722273327E0CF1F93CF93DF93DB
:10248000EC0188810E94B61D182F8A810E94B61D1A
:10249000880F991F182B8E81811709F44CC0EE818B
:1024A0004F81588569857A8584E0E802F00111241E
:1024B000812F012E000C990BE82BF92BE855FD4FCD
:1024C0009081892F990F990BAA0BBB0B840F951F35
:1024D000A61FB71F8F839887A987BA878C819D8194
:1024E0008230910529F18330910549F1019711F569
:1024F000133001F58F819885A985BA8532E0B595AD
:10250000A795979587953A95D1F78B879C87AD8747
:10251000BE878B899C89AD89BE898F8B988FA98F47
:10252000BA8F0E949A1B6B8B7C8B8D8B9E8B02C00B
:10253000112301F31E83DF91CF911F910895112381
:1025400011F01330B9F78F819885A985BA85B595B3
:10255000A79597958795D9CF0F931F93FC01638912
:102560007489858996890789108D218D328D601B2C
:10257000710B820B930B1F910F910895CF93DF93F3
:10258000EC018C810E94881D8B8D9C8DDF91CF91F9
:102590000C94041CFC0122813381848195812817CD
:1025A000390719F0822F0C94881D08950F931F93FB
:1025B000FC01068117812085318540E052E16AE700
:1025C00070E090E0041715072607370740F476956A
:1025D0006795579547959F5F9630A1F797E0392FFC
:1025E000306A3695909591708091B903882381F077
:1025F0008FB7F8942091B903213091F42DB3209333
:10260000B7034DB32091B803209524232DBB8FBF72
:102610003CBD9DBD60E0CF011F910F910C94BE1297
:102620008093B703F5CF61E00E94BE128091B90399
:10263000882361F09FB7F8942091B9038091B70384
:10264000213019F48DBB9FBF08958FBF08951F934C
:10265000CF93DF93EC01162F0E94D612812F806258
:102660000E94AF0C8A87CE01DF91CF911F910C940D
:1026700013131F93CF93DF93EC01162F0E94D612F2
:10268000812F0E94AF0C8A878FEF0E94AF0C182F0A
:10269000CE010E941313812FDF91CF911F910895D6
:1026A000DF92EF92FF920F931F93CF93DF938C01F2
:1026B000C62FD42EE52EF22E0E94D6128C2F8062C9
:1026C0000E94AF0CF8018287CD2DDE2DFA94FFEF2A
:1026D000FF1621F089910E94AF0CF8CFC801DF915D
:1026E000CF911F910F91FF90EF90DF900C941313F7
:1026F0000F931F93CF93DF93222331F0DF91CF917C
:102700001F910F910C942713042F162FEC010E9498
:10271000D612812F80620E94AF0C8A87802F0E9480
:10272000AF0CCE01DF91CF911F910F910C94131339
:10273000CF92DF92EF92FF920F931F93CF93DF938D
:102740008C016B01F22EFC018485811117C0C385B9
:10275000DC2F4C1708F4D42FCD1BC8010E94D612D1
:102760008F2D0E94AF0CF80182877601D15070F056
:10277000F70181917F010E94AF0CF8CFC1E04111B8
:10278000C0E0D42F413248F3D0E2E7CFC15020F06F
:1027900080E00E94AF0CFACFC801DF91CF911F916A
:1027A0000F91FF90EF90DF90CF900C941313CF9286
:1027B000DF92EF92FF920F931F93CF93DF938C01E1
:1027C0006B01FC018485811118C0C385DC2F4C1777
:1027D00008F4D42FCD1BC8010E94D61281E60E94B6
:1027E000AF0CF80182877601D15068F08FEF0E941C
:1027F000AF0CF70181937F01F7CFD42F413208F05E
:10280000D0E2C0E0E8CFC15020F08FEF0E94AF0CC3
:10281000FACFC801DF91CF911F910F91FF90EF90F8
:10282000DF90CF900C941313CF93DF93EC0162EE03
:102830000E9427138A85DF91CF910895CF93DF936C
:10284000EC0161EE0E9427138A85DF91CF910895F4
:10285000CF93DF93EC016FEF0E9427138A85DF91FE
:10286000CF910895FC018BEB93E0918380831686D2
:1028700086819781A085B185893B9848A105B105DE
:1028800040F480E896E9A8E9B0E086839783A087C2
:10289000B18708950F931F93FC017383628355835F
:1028A0004483068317832087318780E2838781E012
:1028B000848785E0838B158A85E090E0A0E0B0E016
:1028C000838F948FA58FB68FCF011F910F910C949A
:1028D0003214462F6D3708F04DE720E065E00C9488
:1028E00078130F931F93CF938C016623A1F061326D
:1028F00008F060E2F8016387C1E120E0F801438558
:102900006C2FC8010E947813CF5FC731B1F7CF9108
:102910001F910F91089561E0EDCFFC01838508952B
:10292000FC0182819381019631F081E0248135811F
:102930002F3F3F4F09F480E008951F93CF93DF931B
:10294000EC010E949014182F8823B1F08A819B819A
:102950002C813D818217930739F061E00E944C1D64
:1029600061E08C810E944C1D60E0CE010E94CA1281
:1029700061E0CE010E94BE12812FDF91CF911F91A5
:102980000895CF93DF93EC0160E00E94CA128F8913
:10299000988D0E94041C8D85882319F0CE010E9419
:1029A0001E144C894E7F4C8B20E060E0CE010E94CB
:1029B000781362E0CE010E943913EDEEF3E0E4916A
:1029C00041E050E001C0440FEA95EAF7482B20E0CF
:1029D00062E0CE01DF91CF910C947813FC01448921
:1029E00041FD0AC04260448B20E060E00E94781301
:1029F00088E893E10C94041C08950F93CF93DF9320
:102A0000EC0121110DC020EACE010E949813002391
:102A100049F061E0CE01DF91CF910F910C94CA1281
:102A200020EBF2CFDF91CF910F910895CF92DF92FB
:102A3000EF92FF920F93CF93DF93EC0101E00E949E
:102A4000FD140E949A1B6B017C01CE010E94281488
:102A50008073B1F40E949A1B6C197D098E099F093D
:102A6000603671058105910580F381E08E8B80E0F1
:102A7000DF91CF910F91FF90EF90DF90CF9008956D
:102A800060E0CE010E94CA1220E040E767E0CE017C
:102A90000E9478138A8584FF04C0CE010E941E1410
:102AA000E6CF81E0E5CF20E00C941615CF93DF93BD
:102AB000EB010E94281490E09595879587708630E9
:102AC00028F4209709F0888381E001C080E0DF913D
:102AD000CF910895CF93DF93EC010E94D71320E0AC
:102AE00040E467E0CE01DF91CF910C9478130F930F
:102AF0001F93CF93DF93EC018B012B89AB016AE02D
:102B00000E9450132B89A80160E1CE01DF91CF9183
:102B10001F910F910C9450130F931F93CF938C011F
:102B2000CEEFC60F69F0C37020E04C2F63E00E9427
:102B30007813CE5FF801C38BCF911F910F91089549
:102B400020E040E063E00E94781382E0F801838B8C
:102B5000F3CFEF92FF920F931F93CF938C01C62F69
:102B60007A0161112CC0FC01438950E0B7010E9637
:102B70000E942B24EC2FF0E0E951FC4F6491F80106
:102B80002389A701C8010E94501362E0C8010E9476
:102B90003913EC2FF0E0E351FC4FE49141E050E0B9
:102BA00001C0440FEA95EAF7482B20E062E0C80133
:102BB000CF911F910F91FF90EF900C947813663096
:102BC00048F4E62FF0E0E951FC4F613099F264914E
:102BD00021E0D7CFCF911F910F91FF90EF900895F3
:102BE0001F93CF93DF93EC01162F62E00E943913FD
:102BF000E12FF0E0E351FC4FE49121E030E001C02F
:102C0000220FEA95EAF72095422F482320E062E060
:102C1000CE01DF91CF911F910C947813CF93DF9366
:102C2000EC010E94EE144C8941604C8B20E060E086
:102C3000CE010E94781320E040E767E0CE010E94B9
:102C4000781361E0CE010E94CA128E85882351F06C
:102C5000AE01425F5F4F2B896AE0CE01DF91CF91D9
:102C60000C94501360E0CE01DF91CF910C94F015DD
:102C7000CF93DF93EC010E94D61280E50E94AF0C47
:102C80008A8783E70E94AF0CCE01DF91CF910C942D
:102C900013130F931F93CF93DF938C01D62FC42F61
:102CA00066E00E943913887FD43060F0CA5F4C2FF1
:102CB000482B20E066E0C801DF91CF911F910F9172
:102CC0000C947813DD0FCD0FF2CFEF92FF920F939C
:102CD0001F93CF938C017B0166E00E943913C82FAC
:102CE000C77D82E0E816F104F1F4C0628BE990E060
:102CF000A0E0B0E0F801878B908FA18FB28F20E029
:102D00004C2F66E0C8010E94781366E0C8010E945B
:102D1000391391E08C1390E0892FCF911F910F917F
:102D2000FF90EF90089585E590E0A0E0B0E0EA9490
:102D3000EF2801F7C86081E490E0A0E0B0E0DACFCE
:102D4000603108F06FE020E1629FB0011124403152
:102D500008F04FE0462B20E064E00C9478131F93BA
:102D6000CF93DF93EC0165E070E080E090E00E949B
:102D7000CB1B4FE065E0CE010E94A01670E060E042
:102D8000CE010E9465166DE1CE010E943913182F05
:102D9000CE010E9438166DE1CE010E94391391E0F8
:102DA000181390E09D8B882359F0181303C0CE01AF
:102DB0000E94381620E040E06DE1CE010E947813B9
:102DC0001D8620E040E06CE1CE010E9478131C8655
:102DD00020E04FE361E0CE010E94781320E043E061
:102DE00062E0CE010E94781360E2CE010E9471146D
:102DF00065E0CE010E948C156CE4CE010E9469143E
:102E000020E040E767E0CE010E947813CE010E94E7
:102E10001414CE010E941E1420E04CE060E0CE01AC
:102E20000E94781360E0CE010E9439138C8BCE0192
:102E30000E94EE1481E09C899E3009F080E0DF91D1
:102E4000CF911F910895CF93DF93EC010E945E1103
:102E5000CE010E949D14882329F0CE01DF91CF91ED
:102E60000C94AF1680E0DF91CF910895CF93DF935C
:102E70001F92CDB7DEB7FC01698387898823F9F0FB
:102E80002689848595852817190654F081E090E0FD
:102E90009383828390E080E00F90DF91CF9108953B
:102EA0008981A58923893489A20FB32FB11D8C9301
:102EB00085898F5F858B868B81E090E0EDCF00A4C4
:102EC000F1A5E02D61E0CE0101960995F5CFFC0159
:102ED00081899089891B990B0895FC0190898189CA
:102EE0002FEF3FEF981740F4A685B785A90FB11DC6
:102EF0002C9130E09F5F908BC9010895DC015096C2
:102F0000EC91509751968C915197E81748F41E9682
:102F10008D919C91E80FF92FF11D808190E008952B
:102F20008FEF9FEF08950895CF92DF92EF92FF9277
:102F30000F931F93CF93DF938C01CB017A01D801BC
:102F400057962C915797222389F0EB016B01C40E01
:102F5000D51ECC15DD0579F06991D801ED91FC9174
:102F60000190F081E02DC8010995F3CF9896ED917D
:102F7000FC91642F0995C701DF91CF911F910F91AB
:102F8000FF90EF90DF90CF9008952F923F924F9255
:102F90005F926F927F928F929F92AF92BF92CF92E9
:102FA000DF92EF92FF920F931F93CF93DF93CDB7F2
:102FB000DEB760970FB6F894DEBF0FBECDBF3C0101
:102FC0002B015A8349833C832B838DA19EA19E8331
:102FD0008D83EFA1F8A5F887EF8389A59AA59A8735
:102FE0008987EBA5FCA5FC87EB872DA43EA48FA5C4
:102FF00098A99E878D87E9A9FAA9F88BEF87F30135
:103000001382128288EE93E0A0E0B0E0848395837F
:10301000A683B7838CEB92E0918380837587648766
:10302000CB010E940D20F30197878687108A118AB1
:10303000128AC2010E940D20F301948B838B158AA2
:10304000168A178A89819A81958F848F8B819C81BA
:10305000978F868F11A300A3F3A2E2A2D5A2C4A2E8
:10306000B7A2A6A291A680A68D819E8193A782A7D2
:103070008F81988595A784A789859A8597A786A724
:10308000C101EB85FC8509958F859889ED85FE85C5
:1030900060960FB6F894DEBF0FBECDBFDF91CF9123
:1030A0001F910F91FF90EF90DF90CF90BF90AF9066
:1030B0009F908F907F906F905F904F903F902F9058
:1030C0000994CF93DF93EC018CEB92E09983888392
:1030D0008E859F850E940F208B899C89DF91CF91DF
:1030E0000C940F20FC01CA01228D338D232BD9F0C3
:1030F000308921893217B8F020E0422F50E048177C
:1031000059075CF4DB01A40FB51F3C91A685B78578
:10311000A40FB51F3C932F5FF0CF108A818B028CD8
:10312000F38DE02D09940895AB01BC018CEB93E085
:103130000C947218DC015896ED91FC9159973097D8
:1031400031F055961C92559756961C920994089505
:103150008CEB93E00C949A188F929F92AF92BF924F
:10316000CF92DF92EF92FF920F931F9388EA98E13C
:103170009F938F9382E19AE19F938F9384E998E1E3
:103180009F938F938DE09AE19F938F9389E29AE1C9
:103190009F938F938FE19AE19F938F9387E19AE1B9
:1031A0009F938F9386EE882E89E1982E9FE8A92E13
:1031B00099E1B92E27E4C22E29E1D22E34E3E32E81
:1031C00039E1F32E00E319E123E239E145E059E169
:1031D00060E270E08CEB93E00E94C5178DB79EB75C
:1031E0000E960FB6F8949EBF0FBE8DBF1F910F9124
:1031F000FF90EF90DF90CF90BF90AF909F908F9017
:1032000008958CEB93E00C9461181092590481E0BE
:10321000809357041092560461E082E10E94881D59
:1032200061E083E10E94881DE9EBF0E080818E7F00
:10323000808380818D7F808388E48093B80085E4DB
:103240008093BC000895ECEBF0E080818A7B808362
:1032500060E082E10E94881D60E083E10C94881D9B
:10326000880F8093BA0008959B01AC0160E074E27E
:1032700084EF90E00E946B222051310941095109ED
:1032800056954795379527952093B8000895413274
:1032900008F043C0909159049111FCCF91E09093B4
:1032A0005904209357042FEF2093EC03109231041C
:1032B000240F209330049093580490915804880F61
:1032C000892B8093580480915604813009F510921F
:1032D0005604809158048093BB008091BC0083FD0C
:1032E000F8CF85EC8093BC00809159048130E1F3E4
:1032F00080913104841710F440913104A2E3B4E0CA
:10330000962FFB018E2F891B841720F0842F0895A0
:1033100085EEE8CF8D918193F5CF40E0F7CF0F9305
:10332000413208F04BC0909159049111FCCF92E0CA
:1033300090935904009357049FEF9093EC031092DD
:10334000310440933004362FA2E3B4E0FB019E2FFA
:10335000931B941770F11092580490915804880FA1
:10336000892B8093580480915604813029F510925E
:103370005604809158048093BB008091BC0083FD6B
:10338000F8CF85EC8093BC00222321F08091590472
:103390008230D1F38091EC038F3F91F08091EC0368
:1033A000803281F08091EC03803371F084E00F91E2
:1033B000089591919D93CBCF85EEE4CF81E0F7CF37
:1033C00080E0F5CF82E0F3CF83E0F1CF20910E04CF
:1033D000260F3327331F21323105ECF42091590495
:1033E000FC0190E080E0243069F082E00895A09133
:1033F0000E042191AC01405F5B4FA40FB52FB11DAE
:103400002C930196861798F380910E04680F6093B1
:103410000E0480E0089581E0089590935304809312
:10342000520408959093550480935404089588237A
:1034300021F085EC8093BC00089585E8FBCF85EDF5
:103440008093BC008091BC0084FDFCCF1092590495
:10345000089585EC8093BC001092590408951F9242
:103460000F920FB60F9211242F933F934F935F93B8
:103470006F937F938F939F93AF93BF93EF93FF933C
:103480008091B900887F803609F44CC008F03FC0B5
:10349000883209F4A8C018F5803109F49CC0B8F44A
:1034A000882309F4F9C0883009F495C0FF91EF91A1
:1034B000BF91AF919F918F917F916F915F914F914C
:1034C0003F912F910F900FBE0F901F90189588314C
:1034D00009F489C0803251F78093EC0315C0803421
:1034E00009F49EC048F48033B9F38833F9F6809329
:1034F000EC030E94291ADACF803509F485C088359B
:1035000009F496C0883491F60E941F1ACFCF8839EB
:1035100009F48CC038F5883729F050F4883611F05A
:10352000803721F683E0809359041092ED0357C051
:10353000883809F47BC0803919F0803809F0B6CF9B
:103540008091ED03803208F071C0E091ED0381E0DD
:103550008E0F8093ED038091BB00F0E0E251FC4FB1
:1035600080833DC0803B39F0E0F4803A09F479C0B3
:10357000883A09F09BCF84E08093590410920F049D
:1035800010920E04E0915404F09155040995809135
:103590000E0481110FC081E080930E04109210047C
:1035A00009C0803C09F476C0883C09F473C0883BAC
:1035B00009F07CCFE0910F0481E08E0F80930F041F
:1035C000F0E0E05FFB4F80818093BB0090910F049F
:1035D00080910E0429C0809158048093BB0085EC33
:1035E0008093BC0063CF9091310480913004981790
:1035F00058F5E091310481E08E0F80933104F0E0C2
:10360000EE5CFB4F8081E9CFE091310481E08E0FC9
:10361000809331048091BB00F0E0EE5CFB4F80832F
:1036200090913104809130049817C8F285E8D8CF82
:10363000E091310481E08E0F809331048091BB00D2
:10364000F0E0EE5CFB4F80838091570481115CCFEA
:1036500081E08093560484EA8093BC001092590460
:1036600025CF0E94291A8091ED03803230F4E09139
:10367000ED03F0E0E251FC4F10826091ED0370E049
:10368000E0915204F09153048EEE93E0099510926C
:10369000ED030CCF85ECE0CF1092EC0335CF08950D
:1036A0001F920F920FB60F9211242F933F938F9377
:1036B0009F93AF93BF9380915F0490916004A0911A
:1036C0006104B091620430915E0423E0230F2D3732
:1036D00068F126E8230F0296A11DB11D20935E0418
:1036E00080935F0490936004A0936104B09362049C
:1036F00080915A0490915B04A0915C04B0915D04A8
:103700000196A11DB11D80935A0490935B04A09370
:103710005C04B0935D04BF91AF919F918F913F91F5
:103720002F910F900FBE0F901F9018950196A11D1D
:10373000B11DD4CF2FB7F89460915F0470916004ED
:1037400080916104909162042FBF08953FB7F8946F
:1037500080915A0490915B04A0915C04B0915D0447
:1037600026B5A89B05C02F3F19F00196A11DB11DDC
:103770003FBFBA2FA92F982F8827BC01CD01620F18
:10378000711D811D911D42E0660F771F881F991FD3
:103790004A95D1F708958F929F92AF92BF92CF92A0
:1037A000DF92EF92FF926B017C010E94A61B4B01FE
:1037B0005C01C114D104E104F104E9F00E944F1B43
:1037C0000E94A61B681979098A099B09683E734003
:1037D0008105910570F321E0C21AD108E108F108D2
:1037E00088EE880E83E0981EA11CB11CC114D10480
:1037F000E104F10429F7FF90EF90DF90CF90BF90A4
:10380000AF909F908F9008958230910538F0880F87
:10381000991F880F991F05970197F1F708957894DC
:1038200084B5836084BD85B5836085BDEEE6F0E038
:10383000808181608083E1E8F0E082E080838081A4
:1038400081608083E0E8F0E0808181608083E1EB4B
:10385000F0E0808184608083E0EBF0E08081816033
:103860008083E1E9F0E0808183608083E0E9F0E03B
:10387000808181608083E1EAF0E0808183608083E1
:10388000E0EAF0E080818160808387E880937A00BD
:103890001092C1000895883038F092EF980F9B3055
:1038A000D8F08931D8F083512091520190E4299FBA
:1038B000900111248770822B80937C0080917A0084
:1038C000806480937A0080917A0086FDFCCF80919D
:1038D0007800909179000895892FE6CF8FEFE4CF9B
:1038E0001F93CF93DF93182FEB0161E00E944C1DD3
:1038F000209739F460E0812FDF91CF911F910C94D4
:10390000881DCF3FD10511F461E0F5CFE12FF0E044
:10391000ED50FC4FE491E250ED3008F072C0F0E061
:10392000EC56F34E0C948D22A11CA91CAE1CB81CA5
:10393000011D011DC21CCA1CD21CDC1C011DE71C80
:10394000F61C84B5806884BDC7BDDF91CF911F91FF
:10395000089584B5806284BDC8BDF7CF8091800092
:10396000806880938000D0938900C0938800EDCF59
:1039700080918000806280938000D0938B00C09300
:103980008A00E3CF8091B00080688093B000C0933C
:10399000B300DBCF8091B00080628093B000C09311
:1039A000B400D3CF80919000806880939000D09332
:1039B0009900C0939800C9CF5A9A80919000806274
:1039C00080939000D0939B00C0939A00BECF8091CB
:1039D000A00080688093A0008091A0008F7B8093DE
:1039E000A000D093A900C093A800AFCF5A9A8091AD
:1039F000A00080628093A000D093AB00C093AA0087
:103A0000A4CFC038D1050CF07FCF74CF82508D3059
:103A100008F03EC0E82FF0E0E05FF24E0C948D22FB
:103A2000451D491D1D1D231D481D481D271D2D1DFC
:103A3000311D371D481D3B1D411D809180008F7732
:103A4000809380000895809180008F7DF9CF8091D0
:103A5000B0008F778093B00008958091B0008F7D83
:103A6000F9CF809190008F77809390000895809196
:103A700090008F7DF9CF8091A0008F778093A00078
:103A800008958091A0008F7DF9CF84B58F7784BD94
:103A9000089584B58F7DFBCFCF93DF9390E0FC0139
:103AA000E25FFB4F2491875D9B4FFC01849188234B
:103AB000C9F090E0880F991FFC01E45AFB4FA591D3
:103AC000B491FC01E05BFB4FC591D49161110DC035
:103AD0009FB7F8948C91209582238C93888128231A
:103AE00028839FBFDF91CF910895623051F49FB733
:103AF000F8943C91822F809583238C93E8812E2B20
:103B0000EFCF8FB7F894EC912E2B2C938FBFEACF89
:103B10001F93CF93DF93282F30E0F901ED50FC4F36
:103B20008491F901E25FFB4FD491F901E75DFB4F0E
:103B3000C491CC23A9F0162F81110E94061DEC2FF1
:103B4000F0E0EE0FFF1FE05BFB4FA591B4918FB744
:103B5000F894EC91111108C0D095DE23DC938FBF4F
:103B6000DF91CF911F910895DE2BF8CFCF93DF9394
:103B7000282F30E0F901ED50FC4F8491F901E25F0C
:103B8000FB4FD491F901E75DFB4FC491CC23A1F029
:103B900081110E94061DEC2FF0E0EE0FFF1FEC5B81
:103BA000FB4FA591B491EC91ED2381E090E009F4F5
:103BB00080E0DF91CF91089580E090E0FACFFC01A2
:103BC000918D228D892F90E0805C9F4F821B9109FF
:103BD0008F7399270895FC01918D828D981731F08C
:103BE000828DE80FF11D858D90E008958FEF9FEF96
:103BF0000895FC01918D828D981761F0A28DAE0F12
:103C0000BF2FB11D5D968C91928D9F5F9F73928F98
:103C100090E008958FEF9FEF0895FC01538D448D40
:103C2000252F30E0842F90E0821B930B541710F067
:103C3000CF960895019708958FE69FE1892B49F06B
:103C400080E090E0892B29F00E946F1F81110E9473
:103C5000000080E090E0892B49F080E090E0892B23
:103C600029F00E94000081110C9400000895FC01CD
:103C7000A48DA80FB92FB11DA35ABF4F2C91848DCD
:103C800090E001968F739927848FA689B7892C932A
:103C9000A089B1898C9180648C93938D848D9813C5
:103CA00006C00288F389E02D80818F7D808308958E
:103CB000CF93DF93EC01888D8823B9F0AA89BB8963
:103CC000E889F9898C9185FD03C0808186FD0DC04E
:103CD0000FB607FCF7CF8C9185FFF2CF808185FF6F
:103CE000EDCFCE010E94371EE9CFDF91CF9108952D
:103CF000EF92FF920F931F93CF93DF93EC0181E03C
:103D0000888F9B8D8C8D981316C0E889F9898081E6
:103D100085FF11C0EE89FF896083E889F989808178
:103D20008064808381E090E0DF91CF911F910F91BB
:103D3000FF90EF900895F62E0B8D10E00F5F1F4F50
:103D40000F731127E02E8C8D8E110CC00FB607FC5F
:103D5000FACFE889F989808185FFF5CFCE010E94ED
:103D6000371EF1CFEB8DEC0FFD2FF11DE35AFF4F06
:103D7000F0820B8FEA89FB8980818062D2CFCF925B
:103D8000DF92EF92FF921F93CF93DF93EC016A01D2
:103D90007B01122FE889F98982E08083C11481EECA
:103DA000D806E104F104A1F060E079E08DE390E051
:103DB000A70196010E946B22215031094109510946
:103DC0005695479537952795211580E1380798F046
:103DD000E889F989108260E874E88EE190E0A70133
:103DE00096010E946B2221503109410951095695D3
:103DF000479537952795EC85FD853083EE85FF85C2
:103E00002083188EEC89FD891083EA89FB898081E3
:103E100088698083EA89FB8980818F7D8083DF9137
:103E2000CF911F91FF90EF90DF90CF9008951F9258
:103E30000F920FB60F9211242F938F939F93EF93AE
:103E4000FF93E0917304F09174048081E091790410
:103E5000F0917A0482FD1BC0908180917C048F5F79
:103E60008F7320917D04821741F0E0917C04F0E093
:103E7000ED59FB4F958F80937C04FF91EF919F91BB
:103E80008F912F910F900FBE0F901F9018958081EA
:103E9000F4CF1F920F920FB60F9211242F933F93DE
:103EA0004F935F936F937F938F939F93AF93BF9342
:103EB000EF93FF9383E694E00E94371EFF91EF910A
:103EC000BF91AF919F918F917F916F915F914F9132
:103ED0003F912F910F900FBE0F901F90189583E682
:103EE00094E00E94DF1D21E0892B09F420E0822F5D
:103EF0000895E3E6F4E01382128288EE93E0A0E0F6
:103F0000B0E084839583A683B7838EEC92E091839F
:103F1000808385EC90E09587848784EC90E0978798
:103F2000868780EC90E0918B808B81EC90E0938B86
:103F3000828B82EC90E0958B848B86EC90E0978B63
:103F4000868B118E128E138E148E0895AF92BF92AF
:103F5000CF92DF92EF92FF920F931F93CF93DF9355
:103F60006C017B018B01040F151FEB015E01AE1884
:103F7000BF08C017D10759F06991D601ED91FC91A6
:103F80000190F081E02DC6010995892B79F7C501D3
:103F9000DF91CF911F910F91FF90EF90DF90CF9025
:103FA000BF90AF900895FB0101900020E9F7319791
:103FB000AF01461B570BDC01ED91FC910280F381B0
:103FC000E02D09946CED72E00C94D31F0F931F93B6
:103FD000CF93DF938C01D0E0C0E06115710519F03B
:103FE0000E94D31FEC01C8010E94E21F8C0F9D1F8D
:103FF000DF91CF911F910F91089508950E940F1C9A
:104000000E94FD1F0E944704CCE1DEE10E94970A56
:104010002097E1F30E941C1EF9CF0C94AD220C9462
:1040200049235058BB27AA270E9429200C94A3217A
:104030000E94952138F00E949C2120F039F49F3F86
:1040400019F426F40C9492210EF4E095E7FB0C94FD
:104050008C21E92F0E94B42158F3BA176207730725
:104060008407950720F079F4A6F50C94D6210EF478
:10407000E0950B2EBA2FA02D0B01B90190010C0178
:10408000CA01A0011124FF27591B99F0593F50F490
:10409000503E68F11A16F040A22F232F342F4427E8
:1040A000585FF3CF469537952795A795F0405395E0
:1040B000C9F77EF41F16BA0B620B730B840BBAF0B0
:1040C0009150A1F0FF0FBB1F661F771F881FC2F71B
:1040D0000EC0BA0F621F731F841F48F4879577952F
:1040E0006795B795F7959E3F08F0B0CF9395880FE9
:1040F00008F09927EE0F9795879508950E946821FB
:1041000008F481E008950E9497200C94A3210E9456
:104110009C2158F00E94952140F029F45F3F29F03E
:104120000C948C2151110C94D7210C9492210E9453
:10413000B42168F39923B1F3552391F3951B550BE3
:10414000BB27AA2762177307840738F09F5F5F4F6A
:10415000220F331F441FAA1FA9F335D00E2E3AF0A9
:10416000E0E832D091505040E695001CCAF72BD0C1
:10417000FE2F29D0660F771F881FBB1F2617370712
:104180004807AB07B0E809F0BB0B802DBF01FF2744
:1041900093585F4F3AF09E3F510578F00C948C2174
:1041A0000C94D7215F3FE4F3983ED4F3869577953E
:1041B0006795B795F7959F5FC9F7880F911D9695FD
:1041C000879597F90895E1E0660F771F881FBB1F59
:1041D000621773078407BA0720F0621B730B840B06
:1041E000BA0BEE1F88F7E09508950E94FC206894B2
:1041F000B1110C94D72108950E94BC2188F09F57DB
:1042000098F0B92F9927B751B0F0E1F0660F771FFA
:10421000881F991F1AF0BA95C9F714C0B13091F0F0
:104220000E94D621B1E008950C94D621672F782FF3
:104230008827B85F39F0B93FCCF3869577956795B5
:10424000B395D9F73EF490958095709561957F4F21
:104250008F4F9F4F0895E89409C097FB3EF49095C7
:104260008095709561957F4F8F4F9F4F9923A9F04F
:10427000F92F96E9BB279395F695879577956795DE
:10428000B795F111F8CFFAF4BB0F11F460FF1BC022
:104290006F5F7F4F8F4F9F4F16C0882311F096E9B5
:1042A00011C0772321F09EE8872F762F05C0662363
:1042B00071F096E8862F70E060E02AF09A95660F1C
:1042C000771F881FDAF7880F9695879597F90895D5
:1042D000990F0008550FAA0BE0E8FEEF1616170617
:1042E000E807F907C0F012161306E407F50798F07F
:1042F000621B730B840B950B39F40A2661F0232B98
:10430000242B252B21F408950A2609F4A140A69513
:104310008FEF811D811D089597F99F6780E870E0F8
:1043200060E008959FEF80EC089500240A9416162B
:10433000170618060906089500240A941216130693
:10434000140605060895092E0394000C11F4882321
:1043500052F0BB0F40F4BF2B11F460FF04C06F5F3D
:104360007F4F8F4F9F4F089557FD9058440F551F13
:1043700059F05F3F71F04795880F97FB991F61F0E7
:104380009F3F79F087950895121613061406551F5E
:10439000F2CF4695F1DF08C0161617061806991FCA
:1043A000F1CF86957105610508940895E894BB27BF
:1043B00066277727CB0197F908950E94682108F4B2
:1043C0008FEF08950E94F5210C94A3210E9495215E
:1043D00038F00E949C2120F0952311F00C948C2140
:1043E0000C94922111240C94D7210E94B42170F3D3
:1043F000959FC1F3950F50E0551F629FF001729F8A
:10440000BB27F00DB11D639FAA27F00DB11DAA1F98
:10441000649F6627B00DA11D661F829F2227B00DE5
:10442000A11D621F739FB00DA11D621F839FA00D70
:10443000611D221F749F3327A00D611D231F849FC0
:10444000600D211D822F762F6A2F11249F57504017
:104450009AF0F1F088234AF0EE0FFF1FBB1F661F92
:10446000771F881F91505040A9F79E3F510580F05B
:104470000C948C210C94D7215F3FE4F3983ED4F345
:10448000869577956795B795F795E7959F5FC1F7FF
:10449000FE2B880F911D9695879597F90895DB015E
:1044A0008F939F930E949322BF91AF91A29F800D03
:1044B000911DA39F900DB29F900D11240895991BFB
:1044C00079E004C0991F961708F0961B881F7A950B
:1044D000C9F780950895A1E21A2EAA1BBB1BFD0106
:1044E0000DC0AA1FBB1FEE1FFF1FA217B307E407D3
:1044F000F50720F0A21BB30BE40BF50B661F771F2B
:10450000881F991F1A9469F760957095809590950A
:104510009B01AC01BD01CF010895EE0FFF1F059077
:10452000F491E02D09940E949E22A59F900DB49FC6
:10453000900DA49F800D911D11240895A29FB0019C
:10454000B39FC001A39F700D811D1124911DB29FC7
:10455000700D811D1124911D08950F931F93CF930A
:10456000DF938230910510F482E090E0E091020543
:10457000F091030530E020E0B0E0A0E0309799F43E
:104580002115310509F44AC0281B390B24303105A7
:10459000D8F58A819B816115710589F1FB019383AF
:1045A0008283FE0111C0408151810281138148172D
:1045B0005907E0F04817590799F4109761F01296DF
:1045C0000C93129713961C933296CF01DF91CF91E3
:1045D0001F910F9108950093020510930305F4CFE6
:1045E0002115310551F04217530738F0A901DB01BD
:1045F0009A01BD01DF01F801C1CFEF01F9CF90931E
:10460000030580930205CDCFFE01E20FF31F8193D6
:1046100091932250310939832883D7CF2091000507
:1046200030910105232B41F42091020130910301C7
:104630003093010520930005209100013091010184
:104640002115310541F42DB73EB740910401509139
:104650000501241B350BE0910005F0910105E217DF
:10466000F307A0F42E1B3F0B2817390778F0AC0195
:104670004E5F5F4F2417350748F04E0F5F1F509372
:10468000010540930005819391939FCFF0E0E0E016
:104690009CCFCF93DF930097E9F0FC013297138210
:1046A0001282A0910205B0910305ED0130E020E0F7
:1046B0001097A1F420813181820F931F2091000572
:1046C000309101052817390709F061C0F093010501
:1046D000E0930005DF91CF910895EA01CE17DF073F
:1046E000E8F54A815B819E0141155105B1F7E90169
:1046F000FB83EA8349915991C40FD51FEC17FD073D
:1047000061F4808191810296840F951FE90199835C
:104710008883828193819B838A83F0E0E0E0129614
:104720008D919C9113970097B9F52D913C9111971C
:10473000CD010296820F931F209100053091010553
:104740002817390739F6309751F510920305109262
:104750000205B0930105A0930005BCCFD383C283AB
:1047600040815181840F951FC817D90761F44E5FAE
:104770005F4F88819981480F591F518340838A81F7
:104780009B81938382832115310509F0B0CFF0938B
:104790000305E09302059ECFFD01DC01C0CF13822B
:1047A0001282D7CFFC0188279927E89421912032E3
:1047B000E9F3293010F02E30C8F32B3241F02D32BE
:1047C00039F4689404C00E945924820F911D2191EC
:1047D00020532A30C0F31EF4909581959F4F089581
:1047E0001F93FC0199278827BC01E894119110328E
:1047F000E9F3193010F01E30C8F31B3251F01D32AE
:1048000049F4689406C00E944424610F711D811D03
:10481000911D119110531A30B0F33EF4909580958C
:10482000709561957F4F8F4F9F4F1F910895DC01C9
:10483000FB014150504058F049F005900D92002086
:10484000C1F7E61BF70B3197CF0108951C92059035
:104850000020E9F7F6CFFB01DC0102C001900D92C8
:1048600041505040D8F70895FB01DC018D91019033
:1048700080190110D9F3990B0895FB01DC01019017
:104880000D920020E1F70895592F482F372F262F3A
:10489000660F771F881F991F660F771F881F991F44
:1048A000620F731F841F951F660F771F881F991F44
:1048B00008957AE0979F902D879F802D910D112468
:1048C0000895AEE0B0E0E7E6F4E20C9410270D891D
:1048D0001E8986E08C831A8309838FEF9FE79E836E
:1048E0008D83AE01475E5F4F6F89788DCE01019653
:1048F0000E9484242F813885020F131FF801108233
:104900002E96E4E00C942C27ABE0B0E0EAE8F4E269
:104910000C9402277C013B018A01FC01178216825C
:10492000838181FFC8C1CE0101965C01F7019381AB
:10493000F30193FD859193FF81913F01882309F451
:1049400053C1853239F493FD859193FF81913F01E5
:10495000853229F4B70190E00E947426E7CF912CAC
:10496000212C312CFFE1F31538F08B3211F190F44A
:10497000803209F1833229F137FC3CC020ED280F49
:104980002A3050F536FE20C08AE0989E200D112472
:10499000922E06C08D3291F0803371F7689430F812
:1049A000F30193FD859193FF81913F018111DACF4E
:1049B00021C0689431F8689432F8F2CF689433F8E3
:1049C000EFCF689434F8ECCFEAE02E9E200D11244E
:1049D000222E689435F8E4CF8E3229F436FC04C1D7
:1049E000689436F8DDCF8C3619F4689437F8D8CF50
:1049F0008836B1F2982F9F7D95549330E0F083363E
:104A0000A1F18337C1F1833509F063C02801F2E0D9
:104A10004F0E511CF801C080D180692D70E036FC2A
:104A200002C06FEF7FEFC6010E945E264C016894C2
:104A300037F882010AC00C5F1F4FFFE3F983882417
:104A40008394912C6501E89437F833FE2DC0522CE5
:104A50008114910471F5552009F468CFB70180E203
:104A600090E00E9474265A94F6CFF80180818983E1
:104A70000E5F1F4FE4CF2801F2E04F0E511CF801EA
:104A8000C080D180692D70E036FC02C06FEF7FEFEF
:104A9000C6010E9469264C018201D5CFB70180E290
:104AA00090E00E9474262A942814190409F0B0F7A3
:104AB000CECFF60137FC859137FE81916F01B701AA
:104AC00090E00E94742651105A94F1E08F1A9108D8
:104AD000BFCF843619F0893609F077C0F80137FE68
:104AE0006BC060817181828193810C5F1F4FF32DB8
:104AF000FF763F2E97FF09C0909580957095619540
:104B00007F4F8F4F9F4F689437F82AE030E0A50120
:104B10000E94A426C82ECA188C2C432C36FE0CC02A
:104B2000E89440F8C91440F434FE05C032FC03C0D8
:104B3000F32DFE7E4F2E892C44FE95C0FE01EC0D18
:104B4000F11D8081803309F087C0242D297E422EFB
:104B5000842D8870582E43FC95C040FE8FC09C2C3D
:104B6000821418F42C0C922C981844FE91C0B701B2
:104B700080E390E00E94742642FE09C088E790E03E
:104B800041FE02C088E590E0B7010E947426C91476
:104B900008F48AC0CA94D12C9FEFC91AD90ACA0C4A
:104BA000DB1CF60182916F01B70190E00E94742630
:104BB000AC14BD04B1F74FCF60817181072E000C9A
:104BC000880B990B0E5F1F4F92CFD32CE894D4F82B
:104BD0002AE030E0853739F1232D297FD22E8F3618
:104BE00001F148F48835A9F0F701868197812B9669
:104BF000E2E10C941E27803749F08837A9F7D4FEEC
:104C000002C06894D2F820E130E00DC06894D4F876
:104C1000F6CF34FE03C0822F8660D82E20E132E02A
:104C200002C028E030E0F801D7FE0FC0608171813A
:104C3000828193810C5F1F4FA5010E94A426C82E7C
:104C4000CA183D2CE89437F867CF6081718190E0F5
:104C500080E00E5F1F4FF0CF42FC02C0839478CFFC
:104C60008394839475CF842D867809F471CFF6CF21
:104C7000B70180E290E00E94742683948214C0F30E
:104C8000512C73CF522C5818821408F46ECFF8CFE1
:104C9000842D867809F47BCF8BE241FE80E247FCCD
:104CA0008DE2B70190E071CFB70180E390E00E9400
:104CB00074269A946CCF8FEF9FEF99CFFC010590EB
:104CC000615070400110D8F7809590958E0F9F1F0E
:104CD0000895FC016150704001900110D8F7809553
:104CE00090958E0F9F1F08950F931F93CF93DF937F
:104CF000182F092FEB018B8181FD09C01FEF0FEFEA
:104D0000812F902FDF91CF911F910F91089582FFF6
:104D100014C02E813F818C819D81281739073CF476
:104D2000E881F981CF0101969983888310838E8170
:104D30009F8101969F838E83E3CFE885F985812F3C
:104D40000995892BA1F3DACFFA01AA27283051F16E
:104D5000203181F1E8946F936E7F6E5F7F4F8F4FAC
:104D60009F4FAF4FB1E03ED0B4E03CD0670F781F0B
:104D7000891F9A1FA11D680F791F8A1F911DA11DF0
:104D80006A0F711D811D911DA11D20D009F4689429
:104D90003F912AE0269F11243019305D3193DEF6D1
:104DA000CF010895462F4770405D4193B3E00FD087
:104DB000C9F7F6CF462F4F70405D4A3318F0495D72
:104DC00031FD4052419302D0A9F7EACFB4E0A69555
:104DD0009795879577956795BA95C9F70097610577
:104DE000710508959B01AC010A2E069457954795CD
:104DF00037952795BA95C9F7620F731F841F951FC2
:104E0000A01D08952F923F924F925F926F927F92D2
:104E10008F929F92AF92BF92CF92DF92EF92FF92CA
:104E20000F931F93CF93DF93CDB7DEB7CA1BDB0B76
:104E30000FB6F894DEBF0FBECDBF09942A8839881B
:104E400048885F846E847D848C849B84AA84B98422
:104E5000C884DF80EE80FD800C811B81AA81B9812E
:104E6000CE0FD11D0FB6F894DEBF0FBECDBFED0142
:104E7000089512E0C7E3D2E004C0FE010E948D2233
:0C4E80002196C833D107C9F7F894FFCF82
:104E8C000000040580007E766E42766E7E1801FD71
:104E9C0001020205020B021202190220022402294D
:104EAC000232023E0224024602314E6F6465003229
:104EBC004E6F646500000000002003000004000138
:104ECC00900100005A000000A04000004842000081
:104EDC00C84201256C64002564256300446170653B
:104EEC006E6720736C696465722052462075700081
:104EFC00446170656E6720536C696465722E005650
:104F0C00657220302E312E310026333031230026AD
:104F1C003230352C256C642300263230362C256437
:104F2C002300323031002625732C256C642300328B
:104F3C00303200323033002625732C2564230032A6
:104F4C0030340063757272656E7400746F20757006
:104F5C0000746F20646F776E003130310031303265
:104F6C0000313033003130340031303500313036DF
:104F7C000000000000460C66026202650246726F79
:104F8C006D00546F00537065656400526570656107
:104F9C007400466F6375734400466F63757341000C
:104FAC0052756E004261636B004E657720746173BD
:104FBC0074005361766564207461736B7300536580
:104FCC007474696E6700506F776572206F66660047
:104FDC0004080C1815E215AE154015A115C015A640
:104FEC0015A2152F15F816001523158116B415AE3C
:104FFC0015A519FF000196320101327800093D0018
:10500C000004285010080400800040001815A0155A
:10501C00C819FF1815A115C019FF1815AE15A5193B
:10502C00FF1815A415AF19FF00FF0100010000FFC8
:10503C00FF0000010001FF0000000000361794176C
:10504C006202931767176D177E1700000000781E19
:10505C00A61F0D1E581EDF1DF91DEB1D0D0A0000AD
:00000001FF
